{
  "_format": "hh-sol-artifact-1",
  "contractName": "FlashLoan",
  "sourceName": "contracts/FlashLoan.sol",
  "abi": [
    {
      "inputs": [
        {
          "internalType": "address",
          "name": "_addressProvider",
          "type": "address"
        }
      ],
      "stateMutability": "nonpayable",
      "type": "constructor"
    },
    {
      "inputs": [],
      "name": "ADDRESSES_PROVIDER",
      "outputs": [
        {
          "internalType": "contract IPoolAddressesProvider",
          "name": "",
          "type": "address"
        }
      ],
      "stateMutability": "view",
      "type": "function"
    },
    {
      "inputs": [],
      "name": "POOL",
      "outputs": [
        {
          "internalType": "contract IPool",
          "name": "",
          "type": "address"
        }
      ],
      "stateMutability": "view",
      "type": "function"
    },
    {
      "inputs": [
        {
          "internalType": "address",
          "name": "asset",
          "type": "address"
        },
        {
          "internalType": "uint256",
          "name": "amount",
          "type": "uint256"
        },
        {
          "internalType": "uint256",
          "name": "premium",
          "type": "uint256"
        },
        {
          "internalType": "address",
          "name": "initiator",
          "type": "address"
        },
        {
          "internalType": "bytes",
          "name": "params",
          "type": "bytes"
        }
      ],
      "name": "executeOperation",
      "outputs": [
        {
          "internalType": "bool",
          "name": "",
          "type": "bool"
        }
      ],
      "stateMutability": "nonpayable",
      "type": "function"
    },
    {
      "inputs": [
        {
          "internalType": "address",
          "name": "_token",
          "type": "address"
        }
      ],
      "name": "getBalance",
      "outputs": [
        {
          "internalType": "uint256",
          "name": "",
          "type": "uint256"
        }
      ],
      "stateMutability": "view",
      "type": "function"
    },
    {
      "inputs": [
        {
          "internalType": "address",
          "name": "_token",
          "type": "address"
        },
        {
          "internalType": "uint256",
          "name": "_amount",
          "type": "uint256"
        }
      ],
      "name": "requestFlashLoan",
      "outputs": [],
      "stateMutability": "nonpayable",
      "type": "function"
    },
    {
      "inputs": [
        {
          "internalType": "address",
          "name": "_tokenAddress",
          "type": "address"
        }
      ],
      "name": "withdraw",
      "outputs": [],
      "stateMutability": "nonpayable",
      "type": "function"
    },
    {
      "stateMutability": "payable",
      "type": "receive"
    }
  ],
  "bytecode": "0x60c060405234801561001057600080fd5b50604051610df7380380610df7833981810160405281019061003291906101b3565b808073ffffffffffffffffffffffffffffffffffffffff1660808173ffffffffffffffffffffffffffffffffffffffff16815250508073ffffffffffffffffffffffffffffffffffffffff1663026b1d5f6040518163ffffffff1660e01b8152600401602060405180830381865afa1580156100b2573d6000803e3d6000fd5b505050506040513d601f19601f820116820180604052508101906100d691906101b3565b73ffffffffffffffffffffffffffffffffffffffff1660a08173ffffffffffffffffffffffffffffffffffffffff168152505050336000806101000a81548173ffffffffffffffffffffffffffffffffffffffff021916908373ffffffffffffffffffffffffffffffffffffffff160217905550506101e0565b600080fd5b600073ffffffffffffffffffffffffffffffffffffffff82169050919050565b600061018082610155565b9050919050565b61019081610175565b811461019b57600080fd5b50565b6000815190506101ad81610187565b92915050565b6000602082840312156101c9576101c8610150565b5b60006101d78482850161019e565b91505092915050565b60805160a051610be4610213600039600081816101da01528181610453015261049c015260006101890152610be46000f3fe6080604052600436106100595760003560e01c80630542975c146100655780631b11d0ff1461009057806351cff8d9146100cd5780637535d246146100f6578063d54ba95414610121578063f8b2cb4f1461014a57610060565b3661006057005b600080fd5b34801561007157600080fd5b5061007a610187565b6040516100879190610638565b60405180910390f35b34801561009c57600080fd5b506100b760048036038101906100b29190610736565b6101ab565b6040516100c491906107eb565b60405180910390f35b3480156100d957600080fd5b506100f460048036038101906100ef9190610806565b61026a565b005b34801561010257600080fd5b5061010b610451565b6040516101189190610854565b60405180910390f35b34801561012d57600080fd5b506101486004803603810190610143919061086f565b610475565b005b34801561015657600080fd5b50610171600480360381019061016c9190610806565b610536565b60405161017e91906108be565b60405180910390f35b7f000000000000000000000000000000000000000000000000000000000000000081565b60008085876101ba9190610908565b90508773ffffffffffffffffffffffffffffffffffffffff1663095ea7b37f0000000000000000000000000000000000000000000000000000000000000000836040518363ffffffff1660e01b815260040161021792919061094b565b6020604051808303816000875af1158015610236573d6000803e3d6000fd5b505050506040513d601f19601f8201168201806040525081019061025a91906109a0565b5060019150509695505050505050565b60008054906101000a900473ffffffffffffffffffffffffffffffffffffffff1673ffffffffffffffffffffffffffffffffffffffff163373ffffffffffffffffffffffffffffffffffffffff16146102f8576040517f08c379a00000000000000000000000000000000000000000000000000000000081526004016102ef90610a2a565b60405180910390fd5b60008054906101000a900473ffffffffffffffffffffffffffffffffffffffff1673ffffffffffffffffffffffffffffffffffffffff163373ffffffffffffffffffffffffffffffffffffffff161461035057600080fd5b60008190508073ffffffffffffffffffffffffffffffffffffffff1663a9059cbb338373ffffffffffffffffffffffffffffffffffffffff166370a08231306040518263ffffffff1660e01b81526004016103ab9190610a4a565b602060405180830381865afa1580156103c8573d6000803e3d6000fd5b505050506040513d601f19601f820116820180604052508101906103ec9190610a7a565b6040518363ffffffff1660e01b815260040161040992919061094b565b6020604051808303816000875af1158015610428573d6000803e3d6000fd5b505050506040513d601f19601f8201168201806040525081019061044c91906109a0565b505050565b7f000000000000000000000000000000000000000000000000000000000000000081565b600030905060008390506000839050600060405180602001604052806000815250905060007f000000000000000000000000000000000000000000000000000000000000000073ffffffffffffffffffffffffffffffffffffffff166342b0b77c86868686866040518663ffffffff1660e01b81526004016104fb959493929190610b54565b600060405180830381600087803b15801561051557600080fd5b505af1158015610529573d6000803e3d6000fd5b5050505050505050505050565b60008173ffffffffffffffffffffffffffffffffffffffff166370a08231306040518263ffffffff1660e01b81526004016105719190610a4a565b602060405180830381865afa15801561058e573d6000803e3d6000fd5b505050506040513d601f19601f820116820180604052508101906105b29190610a7a565b9050919050565b600073ffffffffffffffffffffffffffffffffffffffff82169050919050565b6000819050919050565b60006105fe6105f96105f4846105b9565b6105d9565b6105b9565b9050919050565b6000610610826105e3565b9050919050565b600061062282610605565b9050919050565b61063281610617565b82525050565b600060208201905061064d6000830184610629565b92915050565b600080fd5b600080fd5b6000610668826105b9565b9050919050565b6106788161065d565b811461068357600080fd5b50565b6000813590506106958161066f565b92915050565b6000819050919050565b6106ae8161069b565b81146106b957600080fd5b50565b6000813590506106cb816106a5565b92915050565b600080fd5b600080fd5b600080fd5b60008083601f8401126106f6576106f56106d1565b5b8235905067ffffffffffffffff811115610713576107126106d6565b5b60208301915083600182028301111561072f5761072e6106db565b5b9250929050565b60008060008060008060a0878903121561075357610752610653565b5b600061076189828a01610686565b965050602061077289828a016106bc565b955050604061078389828a016106bc565b945050606061079489828a01610686565b935050608087013567ffffffffffffffff8111156107b5576107b4610658565b5b6107c189828a016106e0565b92509250509295509295509295565b60008115159050919050565b6107e5816107d0565b82525050565b600060208201905061080060008301846107dc565b92915050565b60006020828403121561081c5761081b610653565b5b600061082a84828501610686565b91505092915050565b600061083e82610605565b9050919050565b61084e81610833565b82525050565b60006020820190506108696000830184610845565b92915050565b6000806040838503121561088657610885610653565b5b600061089485828601610686565b92505060206108a5858286016106bc565b9150509250929050565b6108b88161069b565b82525050565b60006020820190506108d360008301846108af565b92915050565b7f4e487b7100000000000000000000000000000000000000000000000000000000600052601160045260246000fd5b60006109138261069b565b915061091e8361069b565b9250828201905080821115610936576109356108d9565b5b92915050565b6109458161065d565b82525050565b6000604082019050610960600083018561093c565b61096d60208301846108af565b9392505050565b61097d816107d0565b811461098857600080fd5b50565b60008151905061099a81610974565b92915050565b6000602082840312156109b6576109b5610653565b5b60006109c48482850161098b565b91505092915050565b600082825260208201905092915050565b7f4e6f742074686520636f6e7472616374206f776e657200000000000000000000600082015250565b6000610a146016836109cd565b9150610a1f826109de565b602082019050919050565b60006020820190508181036000830152610a4381610a07565b9050919050565b6000602082019050610a5f600083018461093c565b92915050565b600081519050610a74816106a5565b92915050565b600060208284031215610a9057610a8f610653565b5b6000610a9e84828501610a65565b91505092915050565b600081519050919050565b600082825260208201905092915050565b60005b83811015610ae1578082015181840152602081019050610ac6565b60008484015250505050565b6000601f19601f8301169050919050565b6000610b0982610aa7565b610b138185610ab2565b9350610b23818560208601610ac3565b610b2c81610aed565b840191505092915050565b600061ffff82169050919050565b610b4e81610b37565b82525050565b600060a082019050610b69600083018861093c565b610b76602083018761093c565b610b8360408301866108af565b8181036060830152610b958185610afe565b9050610ba46080830184610b45565b969550505050505056fea264697066735822122083e0ac4411496c0d8590e8fa368ce16c8c74a27a2f0d0634848647bdf0fcb79664736f6c63430008170033",
  "linkReferences": {},
  "deployedLinkReferences": {}
}